:020000040800F2
:1000000000000220A1400008150800081708000899
:10001000190800081B0800081D080008000000005F
:10002000000000000000000000000000E1360008B1
:100030001F08000800000000813700086730000832
:10004000F1400008F1400008F1400008F1400008CC
:10005000F1400008F1400008F1400008F1400008BC
:10006000F1400008210800082B080008F1400008B2
:10007000F1400008F1400008F1400008F14000089C
:10008000F1400008F1400008F1400008F14000088C
:10009000F1400008F1400008F1400008F14000087C
:1000A000F1400008F1400008F1400008F14000086C
:1000B000F1400008F1400008F1400008F14000085C
:1000C000F1400008F1400008F1400008F14000084C
:1000D000F140000835080008F1400008F140000830
:1000E000F1400008F1400008F1400008F14000082C
:1000F000F1400008F1400008F1400008F14000081C
:10010000F1400008F1400008F1400008F14000080B
:10011000F1400008F140000845080008F1400008DF
:10012000F1400008F1400008F1400008F1400008EB
:10013000F1400008F1400008F1400008F1400008DB
:10014000F1400008F1400008F1400008F1400008CB
:10015000F1400008F1400008F1400008F1400008BB
:10016000F1400008F1400008F1400008F1400008AB
:10017000F1400008F1400008F140000800000000D4
:08018000F1400008F140000805
:100190000348044B834202D0034B03B11847704716
:1001A0001000002010000020000000000548064B51
:1001B0001B1AD90F01EBA301491002D0034B03B165
:1001C00018477047100000201000002000000000B9
:1001D00010B5064C237843B9FFF7DAFF044B13B18F
:1001E0000448AFF300800123237010BD10000020ED
:1001F00000000000F440000808B5044B1BB104499E
:100200000448AFF30080BDE80840CFE700000000DD
:1002100014000020F440000870B50F4B0F4DAB42A6
:10022000A3EB050607D0B610002455F8043B0134B3
:100230009847A642F9D803F05DFF094D094B5E1BB4
:10024000AB424FEAA60606D0002455F8043B013421
:100250009847A642F9D870BD64420008644200087D
:100260006442000868420008830730B547D0541E36
:10027000002A3ED0CAB2034601E0013C39D303F85C
:10028000012B9D07F9D1032C2CD9CDB205EB052507
:100290000F2C05EB054535D9A4F1100222F00F0C07
:1002A00003F1100EE6444FEA121C1A46C2E900554B
:1002B000C2E9025510327245F8D10CF1010214F076
:1002C0000C0F03EB021204F00F0C13D0ACF104037B
:1002D00023F003030433134442F8045B9342FBD13D
:1002E0000CF003042CB1C9B21C4403F8011BA34257
:1002F000FBD130BD64461346002CF4D1F9E7034628
:100300001446C0E71A46A446E0E700BF844641EA27
:10031000000313F003036DD1403A41D351F8043B7D
:1003200040F8043B51F8043B40F8043B51F8043BCF
:1003300040F8043B51F8043B40F8043B51F8043BBF
:1003400040F8043B51F8043B40F8043B51F8043BAF
:1003500040F8043B51F8043B40F8043B51F8043B9F
:1003600040F8043B51F8043B40F8043B51F8043B8F
:1003700040F8043B51F8043B40F8043B51F8043B7F
:1003800040F8043B51F8043B40F8043B51F8043B6F
:1003900040F8043B51F8043B40F8043B403ABDD2DE
:1003A000303211D351F8043B40F8043B51F8043B80
:1003B00040F8043B51F8043B40F8043B51F8043B3F
:1003C00040F8043B103AEDD20C3205D351F8043B0F
:1003D00040F8043B043AF9D2043208D0D2071CBFDB
:1003E00011F8013B00F8013B01D30B880380604604
:1003F000704700BF082A13D38B078DD010F003037A
:100400008AD0C3F10403D21ADB071CBF11F8013BE9
:1004100000F8013B80D331F8023B20F8023B7BE738
:10042000043AD9D3013A11F8013B00F8013BF9D263
:100430000B7803704B7843708B78837060467047FD
:1004400053B94AB9002908BF00281CBF4FF0FF313B
:100450004FF0FF3000F06AB9ADF1080C6DE904CE41
:1004600000F006F8DDF804E0DDE9022304B070478F
:100470002DE9F047089D0E4604460F46002B4AD151
:1004800094468C45B2FA82F260D942B1C2F120039F
:10049000974020FA03F30CFA02FC1F4394404FEA02
:1004A0001C4E1FFA8CF6B7FBFEF1230C0EFB1177E6
:1004B00043EA074301FB06F098420AD91CEB030309
:1004C00001F1FF3780F01581984240F21281023924
:1004D00063441B1AA4B2B3FBFEF00EFB103344EAD4
:1004E000034400FB06F6A6420AD91CEB040400F103
:1004F000FF3380F00081A64240F2FD806444023860
:1005000040EA0140A41B00211DB1D4400023C5E9ED
:100510000043BDE8F0878B4205D90DB1C5E9000164
:1005200000210846F5E7B3FA83F1002946D1B3422A
:1005300002D3824200F2F580841A66EB03020120A6
:100540001746002DE5D0C5E90047E2E7002A40F054
:100550009380A1EB0C034FEA1C471FFA8CFE01218C
:10056000B3FBF7F607FB1630230C43EA00430EFB00
:1005700006F0984208D91CEB030306F1FF3802D2BB
:10058000984200F2D08046461B1AA4B2B3FBF7F0A3
:1005900007FB103344EA03440EFB00FEA64508D9CE
:1005A0001CEB040400F1FF3302D2A64500F2B68032
:1005B0001846A4EB0E0440EA0640A5E7C1F1200767
:1005C0008B4022FA07FC4CEA030C06FA01FE20FAE3
:1005D00007F426FA07F344EA0E0400FA01F84FEA9A
:1005E0001C404FEA1449B3FBF0FE1FFA8CF600FBE7
:1005F0001E3349EA03430EFB06F9994502FA01F25C
:100600000BD91CEB03030EF1FF3A80F0858099456E
:1006100040F28280AEF1020E6344A3EB0909A4B25A
:10062000B9FBF0F300FB139944EA094403FB06F617
:10063000A64208D91CEB040403F1FF3068D2A6429D
:1006400066D9023B644443EA0E40A41BA0FB02E6C9
:10065000B4427346B14652D34FD05DB1B8EB0302FA
:1006600064EB090404FA07F722FA01F31F43CC40B4
:10067000C5E9007400214CE7C2F1200120FA01F322
:100680000CFA02FC26FA01F1964033434FEA1C476C
:100690001FFA8CFEB1FBF7F007FB1016190C41EAAC
:1006A000064100FB0EF68E4204FA02F408D91CEB58
:1006B000010100F1FF382DD28E422BD9023861445E
:1006C000891B9BB2B1FBF7F607FB161143EA014306
:1006D00006FB0EF1994208D91CEB030306F1FF3823
:1006E00014D2994212D9023E63445B1A46EA004191
:1006F00036E73946EDE6184602E7F045ADD2BEEBE7
:10070000020366EB0C060138B146A6E74646ECE765
:10071000034698E74046D3E7D6467EE7644402386E
:1007200047E708460DE7023E63442DE7704700BFE8
:1007300008B50268034B9A4200D008BD00F0E4FD02
:10074000FBE700BF0010004072B6FEE700B595B0B1
:100750003022002108A8FFF787FD002303930493AC
:1007600005930693079301931F4A116C41F0805142
:100770001164126C02F080520192019A02931B4A9A
:10078000116841F480411160126802F480420292C3
:10079000029A0222089201210B9110210C910E92D3
:1007A0000F9308231093A8231193129204231393F9
:1007B00008A800F071F898B90F230393022304935B
:1007C000002305934FF4A05306934FF480530793EF
:1007D000052103A800F0B0FA20B915B05DF804FBBC
:1007E000FFF7B2FFFFF7B0FF003802400070004093
:1007F00008B500F06FFDFFF7A9FF00F0A1FD00F0C4
:1008000005FE02F03DFC00F0F1FD03F0C1FB02F03B
:1008100049FCFEE7FEE7FEE7FEE7FEE7FEE770477E
:1008200008B5082000F082FC08BD08B5102000F0D3
:100830007DFC08BD08B5024803F05AFA08BD00BFA8
:100840003400002008B5024800F0D6FE08BD00BF05
:100850007C00002000B583B0002200920D4B596C43
:1008600041F480415964596C01F480410091009930
:100870000192196C41F0805119641B6C03F0805394
:100880000193019B0F216FF0010000F00FFD03B0F9
:100890005DF804FB00380240002800F0E08170B5EC
:1008A00082B00446036813F0010F3BD09F4B9B6856
:1008B00003F00C03042B2CD09C4B9B6803F00C031F
:1008C000082B21D06368B3F5803F4FD0B3F5A02F3C
:1008D00052D0964B1A6822F480321A601A6822F4B9
:1008E00080221A606368002B50D000F019FD054685
:1008F0008E4B1B6813F4003F14D100F011FD401B18
:100900006428F5D90320B1E1884B5B6813F4800FAC
:10091000D8D0864B1B6813F4003F03D06368002BCC
:1009200000F09F81236813F0020F54D07F4B9B6827
:1009300013F00C0F3ED07D4B9B6803F00C03082B8B
:1009400033D0E368002B68D0794B01221A6000F0A5
:10095000E7FC0546754B1B6813F0020F54D100F0FD
:10096000DFFC401B0228F5D903207FE16F4A1368A2
:1009700043F480331360B5E76C4B1A6842F480226D
:100980001A601A6842F480321A60ABE700F0C8FCC3
:100990000546664B1B6813F4003FC3D000F0C0FC53
:1009A000401B6428F5D9032060E1604B5B6813F4B9
:1009B000800FC6D15D4B1B6813F0020F03D0E368B4
:1009C000012B40F05081594A136823F0F803216944
:1009D00043EAC1031360236813F0080F42D0636930
:1009E0006BB3534B0122C3F8802E00F099FC0546EF
:1009F0004E4B5B6F13F0020F34D100F091FC401BA3
:100A00000228F5D9032031E1484A136823F0F8039E
:100A1000216943EAC1031360DDE7454B00221A60F8
:100A200000F07EFC0546414B1B6813F0020FD2D04C
:100A300000F076FC401B0228F5D9032016E13C4B60
:100A40000022C3F8802E00F06BFC0546374B5B6F2D
:100A500013F0020F06D000F063FC401B0228F5D90A
:100A6000032003E1236813F0040F77D02F4B1B6C96
:100A700013F0805F33D1002301932C4B1A6C42F0AA
:100A800080521A641B6C03F080530193019B012573
:100A9000284B1B6813F4807F23D0A368012B34D02C
:100AA000052B38D0214B1A6F22F001021A671A6FFA
:100AB00022F004021A67A368002B3DD000F030FC3E
:100AC00006461A4B1B6F13F0020F46D100F028FCAC
:100AD000801B41F288339842F3D90320C6E00025F9
:100AE000D6E7144A136843F48073136000F018FCCF
:100AF0000646104B1B6813F4807FCED100F010FC2B
:100B0000801B0228F5D90320B0E0084A136F43F098
:100B100001031367CFE7054B1A6F42F004021A670F
:100B20001A6F42F001021A67C5E700BF00380240A1
:100B3000000047420070004000F0F2FB0646524BB6
:100B40001B6F13F0020F08D000F0EAFB801B41F28C
:100B500088339842F3D9032088E0EDB9A369002BCC
:100B600000F08380484A926802F00C02082A51D0B3
:100B7000022B17D0454B00221A6600F0D1FB044629
:100B8000414B1B6813F0007F42D000F0C9FB001BF3
:100B90000228F5D9032069E03B4A136C23F0805307
:100BA0001364DBE7394B00221A6600F0B9FB0546F7
:100BB000354B1B6813F0007F06D000F0B1FB401BE3
:100BC0000228F5D9032051E0E369226A1343626ADF
:100BD00043EA8213A26A5208013A43EA0243E26AF4
:100BE00043EA0263284A5360284B01221A6600F048
:100BF00097FB0446244B1B6813F0007F06D100F0DE
:100C00008FFB001B0228F5D903202FE000202DE0E8
:100C100000202BE0012B2BD01B4B5B6803F48001E1
:100C2000E269914226D103F03F02216A8A4223D130
:100C3000616A47F6C0721A40B2EB811F1ED103F4FD
:100C40004031A26A5208013AB1EB024F18D103F0C9
:100C50007063E26AB3EB026F14D1002006E001205A
:100C60007047012002E0012000E0002002B070BDCA
:100C70000120FBE70120F9E70120F7E70120F5E774
:100C80000120F3E70120F1E700380240000047426D
:100C900008B5264B9B6803F00C03042B41D0082BAE
:100CA00041D1224B5A6802F03F025B6813F4800F77
:100CB00012D01E4B5968C1F388111D480023A1FBB7
:100CC0000001FFF7BDFB194B5B68C3F30143013320
:100CD0005B00B0FBF3F008BD144B5868C0F38810FC
:100CE0004FEA401CBCEB000C6EEB0E0E4FEA8E136D
:100CF00043EA9C634FEA8C11B1EB0C0163EB0E03EA
:100D0000DB0043EA5173C90011EB000C43F100030F
:100D1000990200234FEA8C2041EA9C51FFF790FB97
:100D2000D1E70348D7E70348D5E700BF00380240C2
:100D300040787D010024F400002800F09B8070B50D
:100D40000D4604464F4B1B6803F007038B4208D245
:100D5000CBB24C4A1370136803F007038B4240F088
:100D60008B80236813F0020F17D013F0040F04D008
:100D7000454A936843F4E0539360236813F0080FE7
:100D800004D0414A936843F4604393603E4A9368B9
:100D900023F0F003A1680B439360236813F0010F65
:100DA00032D06368012B21D09A1E012A25D9364AF8
:100DB000126812F0020F61D033498A6822F00302F0
:100DC00013438B6000F0ACFA06462F4B9B6803F090
:100DD0000C036268B3EB820F16D000F0A1FA801BFF
:100DE00041F288339842F0D9032042E0264A126843
:100DF00012F4003FE0D101203BE0234A126812F0D8
:100E0000007FD9D1012034E01E4B1B6803F007039B
:100E1000AB4207D9EAB21B4B1A701B6803F00703F9
:100E2000AB422DD1236813F0040F06D0164A936805
:100E300023F4E053E1680B439360236813F0080F39
:100E400007D0114A936823F46043216943EAC10340
:100E50009360FFF71DFF0C4B9B68C3F303130B4A12
:100E6000D35CD8400A4B18600A4B186800F028FB86
:100E7000002070BD012070470120FAE70120F8E74B
:100E80000120F6E7003C024000380240144100080F
:100E90000800002004000020014B1868704700BFC4
:100EA0000800002008B5FFF7F7FF044B9B68C3F369
:100EB0008223034AD35CD84008BD00BF00380240FB
:100EC0000C41000808B5FFF7E7FF044B9B68C3F32C
:100ED0004233034AD35CD84008BD00BF003802400B
:100EE0000C4100080F2303600B4B9A6802F00302C9
:100EF00042609A6802F0F00282609A6802F4E0525E
:100F0000C2609B68DB0803F4E0530361034B1B687A
:100F100003F007030B60704700380240003C0240BA
:100F200000230F2B00F2E98070B582B065E0856880
:100F30004FEA430E032404FA0EF425EA0405CC68B4
:100F400004FA0EF42C438460446824EA02044A68DC
:100F5000C2F300129A40224342605CE0DC0808348D
:100F600050F8242003F00705AD004FF00F0E0EFAE5
:100F700005FE22EA0E0E0A69AA4042EA0E0240F875
:100F800024205CE0072200E0002202FA0EF22A434D
:100F900002345A4D45F82420594A94686FEA0C02ED
:100FA00024EA0C054E6816F4801F01D04CEA0405B3
:100FB000534CA560E46802EA04054E6816F4001F6D
:100FC00001D04CEA04054E4CE560646802EA040571
:100FD0004E6816F4003F01D04CEA0405484C6560A9
:100FE000246822404D6815F4803F01D04CEA040289
:100FF000434C226001330F2B7DD801229A400C68AC
:1010000004EA020C32EA0404F4D14C6804F003044C
:10101000013C012C8BD94A6802F00302032A09D053
:10102000C4685D000322AA4024EA02048A68AA4038
:101030002243C2604A6802F00302022A8ED004688A
:101040004FEA430E032202FA0EF224EA02044A682F
:1010500002F0030202FA0EF2224302604A6812F41E
:10106000403FC7D000220192264A546C44F4804489
:101070005464526C02F480420192019A9C08A51CAF
:101080001E4A52F8255003F0030E4FEA8E0E0F222F
:1010900002FA0EF225EA02051B4A90423FF474AFB1
:1010A00002F5806290421AD002F58062904218D018
:1010B00002F58062904216D002F58062904214D010
:1010C00002F58062904212D002F58062904210D008
:1010D00002F5806290423FF455AF082255E70122A5
:1010E00053E7022251E703224FE704224DE705228E
:1010F0004BE7062249E702B070BD70470038014057
:10110000003C014000380240000002400AB1816109
:101110007047090481617047436901EA030221EACB
:10112000030141EA024181617047704708B5054BF0
:101130005B69034200D108BD024B5861FFF7F5FF20
:10114000F9E700BF003C014070B50446866D00F031
:10115000E7F894F83530DBB2022B06D080236365C4
:10116000002384F83430012070BD054622681368DE
:1011700023F0160313602268536923F08003536140
:10118000236CE3B12268136823F00803136022681C
:10119000136823F00103136023681B6813F0010F29
:1011A00011D000F0BDF8431B052BF5D92023636552
:1011B000032084F83500002384F83430D4E7A36C8E
:1011C000002BDFD1E3E7E26D3F239340B3600123BF
:1011D00084F83530002084F83400C5E790F83530C5
:1011E000DBB2022B03D08023436501207047052327
:1011F00080F835300268136823F001031360002083
:1012000070470000002807DB00F01F02400901239F
:101210009340024A42F82030704700BF00E100E0EE
:10122000002808DB0901C9B200F1604000F5614007
:1012300080F80013704700F00F000901C9B2014B9C
:101240001954704714ED00E000B500F00700C0F13C
:10125000070CBCF1040F28BF4FF0040C031D062B34
:101260000FD9C31E4FF0FF3E0EFA0CF021EA000129
:1012700099400EFA03FE22EA0E0241EA02005DF8EE
:1012800004FB0023EEE70000074AD36823F4E06381
:101290001B041B0C000200F4E060034343F0BF6337
:1012A00043F40033D360704700ED00E010B504460E
:1012B000054BD868C0F30220FFF7C6FF0146204661
:1012C000FFF7AEFF10BD00BF00ED00E008B5FFF76F
:1012D00099FF08BD08B50B4B1A6842F400721A60FA
:1012E0001A6842F480621A601A6842F480721A60C6
:1012F0000320FFF7C9FF0F2000F0E2F8FFF7AAFA7A
:10130000002008BD003C0240034A1168034B1B78D3
:101310000B441360704700BF2C0000200000002029
:10132000014B1868704700BF2C000020034AD2F818
:10133000883043F47003C2F88830704700ED00E055
:1013400070B588B00024039404940594069407941F
:101350000194204B1A6B42F010021A631A6B02F0D0
:1013600010020192019A02941A6B42F001021A6370
:101370001B6B03F001030293029B174D0122C02156
:101380002846FFF7C3FE182303934FF40413049376
:101390000126059603A91148FFF7C2FDC023039358
:1013A00004960594069403A92846FFF7B9FD224642
:1013B00021460920FFF77AFF0920FFF787FF224621
:1013C00021460A20FFF772FF0A20FFF77FFF08B0CF
:1013D00070BD00BF00380240000002400010024013
:1013E00008B5012001F037FFFBE7704708B5044A54
:1013F0000021044801F07CFE034B186008BD00BFCB
:1014000084410008E11300083000002008B50A48B4
:101410000A4B03604FF4E133436000238360C360F1
:1014200003610C2242618361C36102F0A5FB00B934
:1014300008BDFFF789F9FBE73400002000100140E8
:1014400010B588B000230393049305930693079384
:10145000026803F1804303F588339A4201D008B053
:1014600010BD0024019403F594335A6C42F010022D
:101470005A645A6C02F010020192019A02941A6B9B
:1014800042F001021A631B6B03F001030293029BFB
:101490004FF4C063039302230493032306930723AB
:1014A000079303A90548FFF73BFD224605212520A8
:1014B000FFF7FCFE2520FFF709FFD0E70000024000
:1014C00030B589B0044600230193214B1A6C42F0D9
:1014D00010021A641B6C03F010030193019B02A914
:1014E00003A8FFF7FFFC069BCBB9FFF7DBFC034625
:1014F000184AA2FB03239B0C013B1748174A0260C2
:1015000040F2E732C260436000230361836083617D
:1015100000F08AF9054630B1284609B030BDFFF722
:10152000C1FC4300E4E70C4800F01EF80546002823
:10153000F2D13620FFF7CAFE0F2C01D90125EBE7C7
:10154000002221463620FFF7B1FE054B1C60E3E781
:101550000038024083DE1B437C0000200010004066
:10156000040000207047000090F83D30DBB2012BF2
:1015700037D1022380F83D300268D36843F001037D
:10158000D3600368194A934220D0B3F1804F1DD035
:10159000A2F57C42934219D002F58062934215D0A5
:1015A00002F58062934211D002F5784293420DD049
:1015B00002F57052934209D0A2F59432934205D0BD
:1015C0001A6842F001021A60002070479A6802F01F
:1015D0000702062A07D01A6842F001021A600020AA
:1015E0007047012070470020704700BF0000014095
:1015F000704770477047704770B504460368DE68EF
:101600001D6915F0020F10D016F0020F0DD06FF00B
:1016100002021A610123037703689B6913F0030F29
:101620005ED0FFF7E6FF0023237715F0040F12D0FA
:1016300016F0040F0FD023686FF004021A61022322
:10164000237723689B6913F4407F4FD02046FFF730
:10165000D0FF0023237715F0080F12D016F0080FE3
:101660000FD023686FF008021A61042323772368E0
:10167000DB6913F0030F40D02046FFF7BAFF0023C9
:10168000237715F0100F12D016F0100F0FD023682B
:101690006FF010021A61082323772368DB6913F4C3
:1016A000407F31D02046FFF7A4FF0023237715F0B9
:1016B000010F02D016F0010F2DD115F0800F02D0CE
:1016C00016F0800F2FD115F0400F02D016F0400F0A
:1016D00031D115F0200F02D016F0200F33D170BD9C
:1016E000FFF786FF2046FFF785FF9CE72046FFF7C0
:1016F0007FFF2046FFF77EFFABE72046FFF778FF2E
:101700002046FFF777FFBAE72046FFF771FF204634
:10171000FFF770FFC9E723686FF001021A612046E6
:10172000FFF706F8C9E723686FF080021A612046C8
:1017300000F0A7F8C7E723686FF040021A6120465F
:10174000FFF759FFC5E723686FF020021A612046B2
:1017500000F096F8C3E700000368324A904212D0C6
:10176000B0F1804F0FD0A2F57C4290420BD002F531
:101770008062904207D002F58062904203D002F569
:101780007842904203D123F070034A681343254AFC
:1017900090422AD0B0F1804F27D0A2F57C429042EF
:1017A00023D002F5806290421FD002F58062904201
:1017B0001BD002F57842904217D002F57052904249
:1017C00013D002F5806290420FD002F58062904201
:1017D0000BD0A2F59832904207D002F58062904279
:1017E00003D002F58062904203D123F44073CA68AB
:1017F000134323F080034A6913438A68C2620A686C
:101800008262084A904203D002F58062904201D180
:101810000A690263026842F0040202600122426126
:10182000036070470000014040B310B5044690F8D3
:101830003D30F3B1022384F83D30214651F8040BCA
:10184000FFF78AFF012384F8463084F83E3084F89D
:101850003F3084F8403084F8413084F8423084F8D6
:10186000433084F8443084F8453084F83D3000201B
:1018700010BD80F83C30FFF775FEDBE701207047B4
:101880007047704700F1080343604FF0FF328260F9
:10189000C360036100230360704700230361704746
:1018A00043684B609A688A60516099600861036878
:1018B00001330360704730B40D68B5F1FF3F11D0BC
:1018C00000F108031C465B681A68AA42FAD96368EB
:1018D0004B6099608C60616008610368013303604C
:1018E00030BC70470469F2E70369416882688A6026
:1018F000416851605A68824206D0002202611A682B
:10190000013A1A601868704782685A60F5E710B5A6
:10191000044601F0F7FEA26BE36B9A4204D0002468
:1019200001F012FF204610BD0124F9E710B504466E
:1019300001F0E8FEA36B23B9012401F005FF204666
:1019400010BD0024F9E770B504461546866B026C9D
:101950005AB903681BB100200136A66370BD8068C8
:1019600001F0C4F80023A360F6E76DB94068FEF704
:10197000CDFC6368226C13446360A268934219D360
:10198000236863602846E7E7C068FEF7BFFCE368AA
:10199000226C51429B1AE3602268934202D2A368F0
:1019A0000B44E360022D01D00020D5E726B1013EB3
:1019B0000020D1E72846CFE70020CDE70346026CA0
:1019C0006AB110B50846D9681144D9609C68A14233
:1019D00001D31968D960D968FEF798FC10BD70472B
:1019E00038B5054601F08EFE95F8454064B201E039
:1019F000013C64B2002C0ADD6B6A43B105F124009E
:101A000000F0CAFF0028F3D001F05AF8F0E7FF23F6
:101A100085F8453001F098FE01F074FE95F84440D9
:101A200064B201E0013C64B2002C0ADD2B6943B1D1
:101A300005F1100000F0B0FF0028F3D001F040F8ED
:101A4000F0E7FF2385F8443001F07EFE38BD38B55D
:101A5000E0B10D46044601F055FE2368E26B216CAF
:101A600001FB0230A0600020A0636360013A02FB2A
:101A70000133E360FF2384F8443084F84530FDB936
:101A8000236963B901F060FE012038BD4FF05003B7
:101A900083F31188BFF36F8FBFF34F8FFEE704F11D
:101AA000100000F079FF0028ECD04FF0E0234FF059
:101AB0008052C3F8042DBFF34F8FBFF36F8FE1E760
:101AC00004F11000FFF7DEFE04F12400FFF7DAFE58
:101AD000D8E738B51D46049C0B4649B92460E0633D
:101AE000236401212046FFF7B2FF84F84C5038BD33
:101AF0002260F4E740B94FF0500383F31188BFF33D
:101B00006F8FBFF34F8FFEE710B584B01C4684463D
:101B100053B192B189B94FF0500383F31188BFF3E9
:101B20006F8FBFF34F8FFEE74FF0500383F31188A1
:101B3000BFF36F8FBFF34F8FFEE76AB1502303935C
:101B4000039B502B13D04FF0500383F31188BFF346
:101B50006F8FBFF34F8FFEE70029EFD04FF0500398
:101B600083F31188BFF36F8FBFF34F8FFEE7039BA3
:101B7000012384F8463000949DF818306046FFF742
:101B8000A8FF204604B010BD40B94FF0500383F3C6
:101B90001188BFF36F8FBFF34F8FFEE7F0B583B0AF
:101BA0000D461446064601FB00F0503001F082FC61
:101BB000074650B1002380F846300090234600F1DC
:101BC000500229463046FFF784FF384603B0F0BD87
:101BD000F0B585B0019288B10F461D460446B1B1FB
:101BE000022D20D1E36B012B1DD04FF0500383F366
:101BF0001188BFF36F8FBFF34F8FFEE74FF0500395
:101C000083F31188BFF36F8FBFF34F8FFEE7036C31
:101C1000002BE5D04FF0500383F31188BFF36F8F93
:101C2000BFF34F8FFEE700F051FF064658B9019B06
:101C3000002B48D04FF0500383F31188BFF36F8F10
:101C4000BFF34F8FFEE700263DE02A463946204687
:101C5000FFF779FE636A7BB948B14FF0E0234FF09C
:101C60008052C3F8042DBFF34F8FBFF36F8F01F085
:101C70006BFD012005B0F0BD04F1240000F08CFEE6
:101C80000028F4D04FF0E0234FF08052C3F8042D29
:101C9000BFF34F8FBFF36F8FE9E701F055FD0020D1
:101CA000E8E702A800F0BEFE012619E0002384F850
:101CB000443021E0002384F8453023E02046FFF73C
:101CC0008FFE00F0DBFC01F01DFDA26BE36B9A427E
:101CD000BBD3022DB9D0019B002BDED0002EE0D06B
:101CE00001F032FD00F028FC01F00CFD94F84420D6
:101CF00052B2B2F1FF3FD9D094F8452052B2B2F1BE
:101D0000FF3FD7D001F020FD01A902A800F096FE08
:101D1000D8B92046FFF7FBFD0028CFD0019904F188
:101D2000100000F005FE2046FFF75AFE00F0A6FC6A
:101D30000028C8D14FF0E0234FF08052C3F8042DA3
:101D4000BFF34F8FBFF36F8FBDE72046FFF748FE0D
:101D500000F094FC00208DE72DE9F84390B10F4688
:101D600016461C460546B1B1022C20D1EB6B012B67
:101D70001DD04FF0500383F31188BFF36F8FBFF373
:101D80004F8FFEE74FF0500383F31188BFF36F8F3F
:101D9000BFF34F8FFEE7036C002BE5D04FF05003ED
:101DA00083F31188BFF36F8FBFF34F8FFEE701F00E
:101DB000CFFDEFF311884FF0500383F31188BFF389
:101DC0006F8FBFF34F8FAA6BEB6B9A4206D3022C37
:101DD00004D0002088F31188BDE8F88395F8459079
:101DE0004FFA89F9AB6B224639462846FFF7ABFD1F
:101DF000B9F1FF3F06D009F101035BB285F8453028
:101E00000120E7E76B6A0BB90120E3E705F1240045
:101E100000F0C2FD18B126B101203060DAE70120E0
:101E2000D8E70120D6E7F0B585B0019290B10F4612
:101E30000446C1B100F04AFE064600BB019B002BE0
:101E40005ED04FF0500383F31188BFF36F8FBFF361
:101E50004F8FFEE74FF0500383F31188BFF36F8F6E
:101E6000BFF34F8FFEE7036C002BE3D04FF050031E
:101E700083F31188BFF36F8FBFF34F8FFEE7002608
:101E80003EE039462046FFF799FD013DA5632369F1
:101E900023B901F059FC012005B0F0BD04F1100098
:101EA00000F07AFD0028F4D04FF0E0234FF080528C
:101EB000C3F8042DBFF34F8FBFF36F8FE9E701F035
:101EC00043FC0020E8E702A800F0ACFD012621E079
:101ED000002384F8443029E0002384F845302BE0C7
:101EE0002046FFF77DFD00F0C9FB09E02046FFF723
:101EF00077FD00F0C3FB2046FFF718FD00283FD117
:101F000001F000FCA56B002DBBD1019B002BD6D0AE
:101F1000002ED8D001F018FC00F00EFB01F0F2FB0F
:101F200094F844305BB2B3F1FF3FD1D094F8453020
:101F30005BB2B3F1FF3FCFD001F006FC01A902A8CC
:101F400000F07CFD0028D1D12046FFF7EFFC0028EF
:101F5000C6D0019904F1240000F0EAFC2046FFF706
:101F60003FFD00F08BFB0028CAD14FF0E0234FF07B
:101F70008052C3F8042DBFF34F8FBFF36F8FBFE7BD
:101F8000002089E72DE9F843B0B10D46904604469C
:101F9000D9B101F0DDFCEFF311874FF0500383F36B
:101FA0001188BFF36F8FBFF34F8FA66BCEB90020A0
:101FB00087F31188BDE8F8834FF0500383F311884D
:101FC000BFF36F8FBFF34F8FFEE7036C002BE0D0A2
:101FD0004FF0500383F31188BFF36F8FBFF34F8F20
:101FE000FEE794F844904FFA89F929462046FFF716
:101FF000E5FC731EA363B9F1FF3F06D009F10103AD
:102000005BB284F844300120D2E723690BB9012088
:10201000CEE704F1100000F0BFFC30B1B8F1000FC2
:1020200005D00120C8F80000C2E70120C0E7012068
:10203000BEE700000023072B0CD8074A52F83320D4
:102040000AB10133F7E7044A42F8331002EBC30246
:1020500050607047704700BFC400002070B5044650
:102060000D46164601F04EFB94F844305BB2B3F1D6
:10207000FF3F0DD094F845305BB2B3F1FF3F0BD07A
:1020800001F062FBA36B5BB12046FFF7A9FC70BDBA
:10209000002384F84430EDE7002384F84530EFE76F
:1020A0003246294604F1240000F05AFCECE7000017
:1020B000084B1B681B6823B9074B4FF0FF321A60AF
:1020C0007047044B1B68DB68DB685A68024B1A6078
:1020D000704700BF740100200C0100202DE9F0477B
:1020E00080460D4617469946089EDDF824A00A9CB6
:1020F0009200A521206BFEF7B7F8236B07F1804211
:10210000013A03EB820727F00707A5B34FF0000C55
:10211000BCF10F0F09D815F80C3004EB0C0282F853
:10212000343013B10CF1010CF2E7002384F8433092
:10213000372E00D93726E662E66400252565201D86
:10214000FFF7ABFB04F11800FFF7A7FB2461C6F112
:102150003806A6616462656584F858504A4641466F
:10216000384601F0A5FA2060BAF1000F01D0CAF894
:102170000040BDE8F087002384F83430D8E7000041
:1021800038B5002407E004EB840293000E4818449D
:10219000FFF778FB0134372CF5D90C4D2846FFF7B3
:1021A00071FB0B4C2046FFF76DFB0A48FFF76AFBFB
:1021B0000948FFF767FB0948FFF764FB084B1D6000
:1021C000084B1C6038BD00BFA00100208C0100201E
:1021D000780100205C01002048010020300100202F
:1021E000740100207001002010B5044601F08AFA45
:1021F000224A136801331360214B1B685BB1214BEA
:102200001B686BB91E4B1B68DA6AE36A9A4207D8EF
:102210001B4B1C6004E01A4B1C601368012B29D077
:10222000194A1368013313606364E06A174B1B6833
:10223000984201D9154B186000EB8000211D144B0A
:1022400003EB8000FFF72CFB01F07EFA0D4B1B68BF
:102250007BB10B4B1B68DA6AE36A9A4209D24FF0F2
:10226000E0234FF08052C3F8042DBFF34F8FBFF32C
:102270006F8F10BDFFF784FFD2E700BF2C01002055
:102280000006002020010020100100202401002071
:10229000A001002010B5044690F8593063B1012B1D
:1022A00011D0022B0ED04FF0500383F31188BFF3EF
:1022B0006F8FBFF34F8FFEE7006B01F07DF9204673
:1022C00001F07AF910BD01F077F9FBE70F4B1B68BD
:1022D000D3B110B501F016FA0D4BDB68DC68201D98
:1022E000FFF702FB0B4A1368013B1360074A1368B0
:1022F000013B136001F028FA2046FFF7CBFF034BA8
:102300001B68002BE6D110BD704700BF44010020C0
:10231000480100202C01002070B504460D46174BE3
:102320001E68174B18680430FFF7DEFAB4F1FF3F60
:102330000DD03444124B1B685C60A64210D9114B7F
:1023400018680F4B19680431FFF7B5FA70BD002DFE
:10235000EFD00B4B196804310B48FFF7A1FAF5E7F2
:102360000A4B1868064B19680431FFF7A4FA084BAA
:102370001B68A342EAD9064B1C60E7E7280100204E
:1023800000060020700100203001002074010020B0
:102390000C01002008B50BE04FF0E0234FF0805215
:1023A000C3F8042DBFF34F8FBFF36F8F01F005F813
:1023B000FFF78CFF024B1B68012BEDD8F6E700BF3F
:1023C000A001002030B587B00B9C7CB10C9DB5B14D
:1023D0005C250495049D5C2D1AD04FF0500383F3C7
:1023E0001188BFF36F8FBFF34F8FFEE74FF050039D
:1023F00083F31188BFF36F8FBFF34F8FFEE74FF06A
:10240000500383F31188BFF36F8FBFF34F8FFEE745
:10241000049D0C9D2C63022485F8594000240394EC
:10242000029505AC01940A9C0094FFF757FE0C98A6
:10243000FFF7DAFE059807B030BD2DE9F04385B00F
:102440000746884614461E46900001F033F808B34C
:1024500081465C2001F02EF80546A8B1C0F8309006
:10246000002380F85930039302900D9B01930C9B3D
:1024700000933346224641463846FFF72FFE284652
:10248000FFF7B2FE012007E0484601F095F84FF053
:10249000FF3001E04FF0FF3005B0BDE8F0830000F1
:1024A00010B588B000240594069407AA06A905A8CB
:1024B00000F084FF059B0293069B01930094234642
:1024C000079A17491748FFF77DFF174B1860C0B1EF
:1024D00000F00CFC012815D14FF0500383F3118854
:1024E000BFF36F8FBFF34F8F104B4FF0FF321A6067
:1024F0000F4B01221A600F4B00221A6001F09CF969
:1025000003E00020B0F1FF3F01D008B010BD4FF054
:10251000500383F31188BFF36F8FBFF34F8FFEE734
:102520003041000895230008080100200C0100201C
:102530002001002028010020024A136801331360A3
:10254000704700BF04010020014B1868704700BFAE
:102550002801002008B501F0FBF9014B186808BDFF
:1025600028010020F8B53A4B1B68002B69D1394B84
:102570001D6801351D60C5B9374B1B681B6843B129
:102580004FF0500383F31188BFF36F8FBFF34F8F6A
:10259000FEE7314A1168314B186810601960304A03
:1025A000136801331360FFF783FD2E4B1B68AB42AA
:1025B0003DD900272C4B1B68DB6A03EB83039A0091
:1025C0002A4B9B58012B00D90127294B1B68002B54
:1025D0003CD001273AE001271F4B1B681B6843B31F
:1025E0001D4B1B68DB68DC6863689D4226D3261D93
:1025F0003046FFF779F9A36A1BB104F11800FFF721
:1026000073F9E36A1B4A1268934201D9194A1360AD
:1026100003EB83039A00314614481044FFF740F956
:10262000E26A114B1B68DB6A9A42D4D2D4E70027D6
:10263000D2E70C4B4FF0FF321A60BBE7094A136038
:10264000B8E70D4A13680133136000273846F8BD18
:1026500004010020280100207401002070010020E6
:10266000140100200C01002000060020A001002021
:1026700018010020240100201C01002038B5354B32
:102680001B6843B94FF0500383F31188BFF36F8F7A
:10269000BFF34F8FFEE701F035F82E4B1A68013A71
:1026A0001A601B68002B4FD12B4B1B680BB9002401
:1026B0004BE00024294B1B681BB3284BDB68DC680C
:1026C00004F11800FFF710F9251D2846FFF70CF953
:1026D000E06A234B1B68984201D9214B186000EB3C
:1026E000800029461F4B03EB8000FFF7D9F8E26A10
:1026F0001D4B1B68DB6A9A42DCD31C4B01221A601B
:10270000D8E70CB1FFF7D4FC194B1C6884B9174B00
:102710001C68D4B14FF0E0234FF08052C3F8042D71
:10272000BFF34F8FBFF36F8F01240EE0013C07D042
:10273000FFF718FF0028F9D00C4B01221A60F5E7CB
:102740000B4B00221A60E2E7002400F0FDFF204658
:1027500038BD00BF040100202C0100205C010020D6
:1027600024010020A0010020000600201801002004
:102770001C01002038B558B10C46054689B94FF008
:10278000500383F31188BFF36F8FBFF34F8FFEE7C2
:102790004FF0500383F31188BFF36F8FBFF34F8F58
:1027A000FEE71B4B1B6843B14FF0500383F31188C6
:1027B000BFF36F8FBFF34F8FFEE7FFF7BDFE154BE3
:1027C00018682B681C44834209D9A34201D82C60A5
:1027D0000EE0A04201D32C600AE02C6004E0A3428A
:1027E00001D8A04212D22C600021201AFFF794FDDC
:1027F000FFF744FF48B94FF0E0234FF08052C3F891
:10280000042DBFF34F8FBFF36F8F38BD2C60EFE700
:10281000040100202801002010B5A8B10446104B87
:102820001B6843B14FF0500383F31188BFF36F8FE0
:10283000BFF34F8FFEE7FFF77FFE00212046FFF733
:102840006BFDFFF71BFF48B94FF0E0234FF08052BC
:10285000C3F8042DBFF34F8FBFF36F8F10BD00BFC0
:102860000401002008B52D4B1B681BB12C4B012225
:102870001A6008BD2A4B00221A602A4B1B681B6B8A
:102880001A68B2F1A53F03D15A68B2F1A53F10D042
:10289000244B186819683431FEF7A7FD224B1B68DA
:1028A00003EB83018A0021498A58A2B953B1013B45
:1028B000F6E79A68B2F1A53FEAD1DB68B3F1A53F2C
:1028C000E6D1EBE74FF0500383F31188BFF36F8F2E
:1028D000BFF34F8FFEE7084603EB83018A000244F3
:1028E00051684968516003EB830C4FEA8C0208324F
:1028F000024491420BD003EB830291000B4A0A443D
:102900005268D168074A1160074A1360B1E7486806
:1029100062469100054A0A445060ECE70401002039
:10292000180100200006002024010020A001002042
:1029300058B110B50C46094A11681831FEF7BBFFB3
:1029400001212046FFF7E8FC10BD4FF0500383F350
:102950001188BFF36F8FBFF34F8FFEE70006002093
:1029600038B570B10D4614460A4A11681831FEF7A1
:1029700097FF0CB14FF0FF3521462846FFF7CCFCFE
:1029800038BD4FF0500383F31188BFF36F8FBFF34F
:102990004F8FFEE70006002038B5C368DC6824B31B
:1029A00004F118052846FEF79FFF184B1B682BBB48
:1029B000251D2846FEF798FFE06A154B1B689842D4
:1029C00001D9134B186000EB80002946114B03EB33
:1029D0008000FEF765FFE26A0F4B1B68DB6A9A42D4
:1029E00011D901200D4B186038BD4FF0500383F30F
:1029F0001188BFF36F8FBFF34F8FFEE7294608485A
:102A0000FEF74EFFE7E70020EEE700BF04010020DD
:102A100024010020A0010020000600201801002051
:102A20005C010020034B1B680360034B1B68436081
:102A3000704700BF1401002028010020F8B5C8B17C
:102A40000C460546F9B100F05DFE1B4B19686B683A
:102A5000C81A2268B2F1FF3F26D0184E36682F6898
:102A6000B74201D08B4224D9824215D8002323607B
:102A700001241AE04FF0500383F31188BFF36F8FE6
:102A8000BFF34F8FFEE74FF0500383F31188BFF37E
:102A90006F8FBFF34F8FFEE75B1A13442360284606
:102AA000FFF7C0FF002400E0002400F04DFE2046A8
:102AB000F8BD0124F9E700BF28010020140100201F
:102AC000014B01221A60704718010020054B1B685A
:102AD00033B1054B1B680BB10020704702207047D3
:102AE00001207047200100200401002000283BD075
:102AF00038B504461E4B1B68834208D04FF0500384
:102B000083F31188BFF36F8FBFF34F8FFEE7036D21
:102B100043B94FF0500383F31188BFF36F8FBFF3B6
:102B20004F8FFEE7013B0365C16AC26C91421DD025
:102B30000BB1002038BD051D2846FEF7D5FEE06C20
:102B4000E062C0F13803A3610A4B1B68984201D9C7
:102B5000084B186000EB80002946074B03EB800010
:102B6000FEF79EFE0120E5E7002070470020E1E728
:102B70000006002024010020A0010020F8B5064630
:102B80000F4614461D4600F0BDFD214B1B6893F80F
:102B90005820D2B2022A0AD01D4A11684B6D23EA8E
:102BA00006034B651368012283F85820CDB900F065
:102BB000CBFD00F0A7FD1CB1154B1B685B6D2360BE
:102BC000134B1B6893F85830DBB2022B18D000244B
:102BD0000F4B1B68002283F8582000F0B5FD2046FB
:102BE000F8BD11462846FFF797FB4FF0E0234FF062
:102BF0008052C3F8042DBFF34F8FBFF36F8FD6E71A
:102C0000034B1A68536D23EA070353650124DFE77A
:102C100000060020064B1A6813682BB901230360D5
:102C200023B9D368186870470023F8E7002070477D
:102C30000407002008B54160006191420CD8D21A07
:102C400083699A4201D3012008BD011D094B186810
:102C5000FEF731FE0020F7E79A4201D2994206D2F0
:102C6000011D054B1868FEF726FE0020ECE7012049
:102C7000EAE700BF000700200407002030B583B05A
:102C800000F040FD114B1B681BB100F05DFD03B06F
:102C900030BD0F4D2846FEF7F5FD0E4C2046FEF7E1
:102CA000F1FD0D4B1D600D4B1C60002300930C4B80
:102CB0000C4A10210A20FEF71DFF044B1860002863
:102CC000E3D00949FFF7B6F9DFE700BFFC060020B3
:102CD0001C07002008070020040700200007002030
:102CE00004060020540600203841000810B588B0C2
:102CF000FFF7C4FF124B1B68CBB100240594069468
:102D000007AA06A905A800F065FB059B0293069B90
:102D10000193022300932346079A0A490A48FFF7C2
:102D200051FB0A4B186010B1012008B010BD4FF0E4
:102D3000500383F31188BFF36F8FBFF34F8FFEE70C
:102D4000FC0600204041000851300008F806002031
:102D5000B8B19C4603461848006858B300B585B022
:102D600000910192029305291CDCFFF7AFFE0228B7
:102D700010D000231A4669460F480068FEF728FF66
:102D800015E04FF0500383F31188BFF36F8FBFF34B
:102D90004F8FFEE70023069A694607480068FEF752
:102DA00017FF04E0002362466946FEF7D5FF05B031
:102DB0005DF804FB00207047FC06002070B582B06F
:102DC0001B4B1B681A6862B3DB681E68DC68251D34
:102DD0002846FEF789FD236A2046984794F8283054
:102DE00013F0040FECD0A36933449E4207D2636012
:102DF000246129460E4B1868FEF75DFDE0E70021CF
:102E000000910B4632462046FFF7A2FF0028D7D19B
:102E10004FF0500383F31188BFF36F8FBFF34F8FD1
:102E2000FEE7044A106802490860136002B070BDF2
:102E3000040700200007002038B50546FFF784FB93
:102E40000446074B1B68834205D800232B60044BC4
:102E50001C60204638BDFFF7B1FF01232B60F6E769
:102E6000F406002070B582B006460D461749096881
:102E7000C968CC68201DFEF737FD94F828C01CF007
:102E8000040F08D12CF0010C84F828C0236A2046D6
:102E9000984702B070BDA16933462A4631442046A6
:102EA000FFF7C8FE0028F1D0002100910B46324602
:102EB0002046FFF74DFF0028E8D14FF0500383F381
:102EC0001188BFF36F8FBFF34F8FFEE70407002019
:102ED00070B582B006460C46FFF72EFB01A8FFF73F
:102EE000ABFF019B33BB0546E4B9B04213D2224687
:102EF000711B124B1868FFF7B1F8FFF7BFFBD8B989
:102F00004FF0E0234FF08052C3F8042DBFF34F8FF2
:102F1000BFF36F8F10E0FFF7B1FB29463046FFF794
:102F2000A1FF09E0064A126812680AB90124DEE727
:102F30001C46DCE7FFF7A2FB02B070BDFC060020D8
:102F40000007002010B588B002E0049B002B0FDAC8
:102F5000002204A93D4B1868FEF765FF002873D0D6
:102F6000049B002BF1DA07990698059B9847ECE73C
:102F7000069C636913B1201DFEF7B6FC03A8FFF79A
:102F80005BFF049B092BE3D8DFE803F00505053060
:102F900037500505303794F8283043F0010384F8A2
:102FA0002830059BA169024619442046FFF742FEDE
:102FB0000028CDD0236A2046984794F8283013F093
:102FC000040FC5D0A269002100910B460598024468
:102FD0002046FFF7BDFE0028BAD14FF0500383F31F
:102FE0001188BFF36F8FBFF34F8FFEE794F828303F
:102FF00023F0010384F82830AAE794F8283043F03E
:10300000010384F828300599A16131B103460246D5
:1030100001442046FFF70EFE9AE74FF0500383F37A
:103020001188BFF36F8FBFF34F8FFEE794F82830FE
:1030300013F0020F04D023F0010384F8283087E74F
:10304000204600F0B9FA83E708B010BDFC06002066
:1030500000B583B001A8FFF7DDFD0199FFF738FF48
:10306000FFF770FFF6E708B54FF0E0231B69FFF7A5
:103070002DFD012800D108BD00F0B4FBFBE70000E6
:10308000EFF305832BB9064B186828B901221A60A3
:1030900070476FF0050070474FF0FF30704700BF7A
:1030A000E80D0020EFF3058373B90A4B1B68012B71
:1030B0000DD110B50024084BDC77064B02221A60B4
:1030C000FFF7EEF9204610BD6FF0050070474FF096
:1030D000FF307047E80D002000ED00E008B5EFF389
:1030E000058313B1FFF736FA08BDFFF72DFAFBE7AA
:1030F000F0B587B000240594EFF3058474BB68B382
:1031000022B31568936903B918235C1E372C49D87C
:10311000546814F0010F47D156696EB14FEA960C0E
:1031200094682CB1D7685B2F02D9176907B1C6B96B
:103130002CB14FF0FF340EE04FF0800CF0E7D46874
:103140008CB9146994B14FF0FF3404E015460024A3
:1031500018234FF0800C012C0AD0ACB1059807B0B1
:10316000F0BD0124F7E74FF0FF34F4E70024F2E765
:10317000146992680292019400930B4662462946B4
:10318000FFF720F90590E9E705AA019200930B46A5
:103190001FFA8CF22946FFF750F90128DED00023F0
:1031A0000593DBE70020DAE70020D8E72DE9F04FB0
:1031B00085B0EFF305830193002B40D181468A4609
:1031C0001746002841DB11F0020F06D09846FFF7A2
:1031D000BBF983463E46019D23E08046F7E705EABA
:1031E0000905039B1D431AF0010F0DD039EA0503B1
:1031F00027D06FB3FFF7A8F9A0EB0B039E420BD3C8
:10320000ABEB000006440BE019EA050F19D1002FC3
:10321000F0D16FF0020514E0019E01E06FF00105AE
:103220007CB1334603AA41460020FFF7A7FC0446C1
:103230000128D4D0002FF1D16FF00205F0E76FF034
:103240000505284605B0BDE8F08F6FF00305F8E7E7
:103250006FF00205F5E708B5EFF3058333B908B958
:10326000002008BDFFF7D8FA0020FAE76FF005004C
:10327000F7E7EFF3058373B910B582B00446FFF7A3
:1032800063F90190211A002908DD01A8FFF772FAFD
:10329000002002B010BD6FF0050070476FF0030012
:1032A000F7E770B582B0EFF30583002B3AD11446EF
:1032B00000283BD000293BD06AB393684BB1D26859
:1032C0004F2A06D9226922B101FB00F56669AE4298
:1032D0001BD273B14FF0FF3363BB0022FEF754FCE7
:1032E000054605B304B1246821462846FEF7A2FE30
:1032F00019E0E3688BB9236913B14FF0FF33EBE7B3
:1033000063696BB14FF0FF33E6E700250095FEF7E8
:10331000F1FB0546E5E70023DEE74FF0FF33DBE78F
:103320000023D9E70025284602B070BD0025FAE742
:103330000025F8E70025F6E710B582B01C46EFF34C
:103340000583C3B110B321B334BB0023019301AA99
:10335000FEF718FE012822D1019850B14FF0E0236A
:103360004FF08052C3F8042DBFF34F8FBFF36F8F20
:10337000002002B010BDA8B1B9B12246FEF753FD3E
:10338000012815D0B4B16FF00100F2E76FF003002F
:10339000EFE76FF00300ECE76FF00300E9E76FF091
:1033A0000200E6E76FF00300E3E76FF00300E0E7F9
:1033B0000020DEE76FF00200DBE77047034B03609D
:1033C000034B0B6080231360704700BF8C0D0020FF
:1033D0008C0B0020034B0360034B0B604FF4807396
:1033E00013607047300B002030070020124A12F0A3
:1033F000070F1ED0D11D21F00701C1F570531344F2
:103400000A460E480260002141601344083B23F045
:1034100007030B48036059601960991A51601360E3
:10342000084B1960084B1960084B4FF000421A60B6
:1034300070474FF47053E4E70C0E0020040E002098
:10344000000E0020F80D0020FC0D0020EC0D0020E7
:10345000164B1A461B688342FBD3516802EB010CE2
:10346000844509D0416800EB010C634509D0036035
:10347000904219D010607047406801445160104676
:10348000F0E710B40A4C2468A3420BD05B681944DF
:10349000416013681B680360904200D010605DF8C3
:1034A000044B70470460F7E7704700BF040E00202C
:1034B000000E002038B50446FFF73EF8384B1B6875
:1034C000B3B1384B1B681C4250D1002C50D004F1D2
:1034D000080214F0070F02D022F007020832002A77
:1034E00055D0314B1B68934253D330490C6804E0EC
:1034F000FFF77CFFE5E721461C466368934202D252
:103500002368002BF7D1264B1B68A34243D00D68DC
:10351000083523680B6063689B1A102B10D9A0181C
:1035200010F0070F08D04FF0500383F31188BFF35A
:103530006F8FBFF34F8FFEE743606260FFF788FF36
:10354000626819490B689B1A0B60194909688B421C
:1035500001D217490B60134B1B68134363600023B0
:103560002360144A13680133136002E0002500E071
:103570000025FFF783F815F0070F0ED04FF050032A
:1035800083F31188BFF36F8FBFF34F8FFEE70025E2
:10359000EFE70025EDE70025EBE7284638BD00BF43
:1035A000000E0020EC0D0020FC0D0020040E002079
:1035B000F80D0020F40D0020002834D038B5044662
:1035C000A0F1080550F8043C174A1268134208D1CC
:1035D0004FF0500383F31188BFF36F8FBFF34F8F0A
:1035E000FEE750F8081C41B14FF0500383F31188F7
:1035F000BFF36F8FBFF34F8FFEE723EA020340F85C
:10360000043CFEF799FF54F8041C084A13680B4465
:1036100013602846FFF71CFF054A13680133136047
:10362000FFF72CF838BD7047EC0D0020FC0D002092
:10363000F00D002082B0002301930D4B1B68B3F105
:10364000FF3F08D04FF0500383F31188BFF36F8F13
:10365000BFF34F8FFEE74FF0500383F31188BFF3A2
:103660006F8FBFF34F8F019B002BFCD002B07047D0
:103670000C00002008480068006880F308884FF0BC
:10368000000080F3148862B661B6BFF34F8FBFF3BA
:103690006F8F00DF00BF000008ED00E0DFF80C00D6
:1036A000016841F4700101607047000088ED00E09E
:1036B0004FF0807340F8043C21F0010140F8081CF1
:1036C000054B40F80C3C40F8202C6FF0020340F80A
:1036D000243C4438704700BF353600080000000025
:1036E000074B19680868B0E8F04F80F30988BFF30A
:1036F0006F8F4FF0000080F311887047AFF30080A8
:10370000000600204FF0500383F31188BFF36F8F42
:10371000BFF34F8F0B4A136801331360012B00D0A6
:1037200070474FF0E023D3F8043D13F0FF0FF7D0BC
:103730004FF0500383F31188BFF36F8FBFF34F8FA8
:10374000FEE700BF0C000020094B1B6843B94FF097
:10375000500383F31188BFF36F8FBFF34F8FFEE7E2
:10376000013B034A13600BB983F31188704700BF14
:103770000C0000200000000000000000000000001D
:10378000EFF30980BFF36F8F154B1A681EF0100F0F
:1037900008BF20ED108A20E9F04F10602DE90900E4
:1037A0004FF0500080F31188BFF34F8FBFF36F8F3E
:1037B000FFF758F84FF0000080F3118809BC196832
:1037C0000868B0E8F04F1EF0100F08BFB0EC108A88
:1037D00080F30988BFF36F8F704700BFAFF300809D
:1037E0000006002008B54FF0500383F31188BFF3A3
:1037F0006F8FBFF34F8FFEF7B5FE28B14FF0E02378
:103800004FF08052C3F8042D002383F3118808BDC4
:103810004FF0E022002313619361054B1B680549BB
:10382000A1FB03139B09013B5361072313617047FD
:1038300008000020D34D62104FF0E023D3F8002D94
:103840003D4B9A421CD04FF0E023D3F8002D3B4B68
:103850009A421ED030B583B0394B1A78D2B2019259
:10386000FF221A701B78DBB28DF803309DF803300D
:1038700003F05003334A1370334B07221A601BE0E6
:103880004FF0500383F31188BFF36F8FBFF34F8F57
:10389000FEE74FF0500383F31188BFF36F8FBFF340
:1038A0004F8FFEE7284A1368013B13609DF80330F1
:1038B0005B00DBB28DF803309DF8033013F0800F0E
:1038C000F0D1214B1B68032B08D04FF0500383F33A
:1038D0001188BFF36F8FBFF34F8FFEE71B021A4AA9
:1038E000136003F4E0631360019BDBB2144A1370AE
:1038F0004FF0E024D4F8203D43F47003C4F8203D99
:10390000D4F8203D43F07043C4F8203DFFF780FF1A
:1039100000250E4B1D60FFF7C1FED4F8343F43F085
:103920004043C4F8343FFFF7A5FEFEF79BFFFFF7C7
:1039300081FE284603B030BD71C20F4170C20F41F5
:1039400000E400E0104A00200C4A00200C00002097
:10395000EFF305830F2B0FD9114A9B5CDBB2114AA1
:1039600012789A4208D94FF0500383F31188BFF3BD
:103970006F8FBFF34F8FFEE74FF0E023D3F80C3D7E
:1039800003F4E063084A1268934208D94FF05003E9
:1039900083F31188BFF36F8FBFF34F8FFEE770473C
:1039A000F0E300E0104A00200C4A0020026802F117
:1039B0000C0353E8003F23F490730C3242E80031CB
:1039C0000029F3D1026802F1140353E8003F23F009
:1039D0000103143242E800310029F3D1036B012BBB
:1039E00005D0202380F8423000230363704702682B
:1039F00002F10C0353E8003F23F010030C3242E8BD
:103A000000310029F3D1ECE790F84130DBB2212BF3
:103A100001D0022070478368B3F5805F17D0036A36
:103A20005A1C02621A7803685A60C38C9BB2013B2D
:103A30009BB2C3844BB90268D36823F08003D36080
:103A40000268D36843F04003D360002070470369E5
:103A5000002BE4D1036A1B880268C3F30803536098
:103A6000036A02330362E0E710B504460268136993
:103A700023F44053C1680B431361836802691A43FE
:103A800043691A43C3691A430168CB6823F4164398
:103A900023F00C031343CB600268536923F4407393
:103AA00081690B4353610368314A934206D002F5A2
:103AB0008062934202D0FDF7F5F901E0FDF702FACA
:103AC000E369B3F5004F29D00021031849411B18C1
:103AD00041F10001C90041EA5371DB001818636825
:103AE0004FEA83024FEA937341F10001FCF7A8FC0F
:103AF000204AA2FB00314909642303FB11031B0187
:103B00003233A2FB03235B0903F0F00202EB011244
:103B100003F00F03216813448B6010BD00230218CB
:103B200043EB0301121841F10001C90041EA52714F
:103B3000D200101841F10001626892185B41FCF755
:103B40007FFC0C4AA2FB00314909642303FB1103EB
:103B5000DB003233A2FB03235B095A0002F4F87244
:103B600002EB011203F00703216813448B60D4E7D2
:103B7000001001401F85EB5160B310B5044690F86A
:103B8000413013B3242384F841302268D36823F4EE
:103B90000053D3602046FFF767FF2268136923F4C0
:103BA000904313612268536923F02A03536122680A
:103BB000D36843F40053D36000206064202384F86A
:103BC000413084F84230606310BD80F84030FDF72A
:103BD00037FCD7E701207047704708B50168CA680D
:103BE00022F04002CA60202280F84120FFF7F4FF53
:103BF000002008BD7047704708B5806B0023C3855F
:103C0000FFF7F9FF08BD704790F84230DBB2222B76
:103C100069D18368B3F5805F4FD0826AB3F5805F66
:103C200004D0002B56D10369002B53D103685B6885
:103C30001370836A01338362C38D9BB2013B9BB2D5
:103C4000C385002B51D100B583B00268D36823F03F
:103C50002003D3600268D36823F48073D3600268C2
:103C6000536923F001035361202380F8423000237D
:103C70004363036B012B33D100230363026802F11A
:103C80000C0353E8003F23F010030C3242E80031EC
:103C90000029F3D103681A6812F0100F06D0002231
:103CA00001921A6801925B680193019B818DFFF775
:103CB000AAFF002003B05DF804FB0269002AACD122
:103CC000826A03685B68C3F308031380836A023364
:103CD0008362B1E703685B6803F07F031370A8E7B2
:103CE000FFF788FFE5E702207047002070470000DB
:103CF00010B582B0044602681368D068516913F0A9
:103D00000F0F09D113F0200F0CD010F0200F09D0A5
:103D10002046FFF779FF16E011F0010115D110F4EC
:103D2000907F12D1216B012979D013F0800F03D03D
:103D300010F0800F40F0218113F0400F03D010F0FD
:103D4000400F40F01E8102B010BD13F0010F06D0ED
:103D500010F4807F03D0626C42F00102626413F0C1
:103D6000040F04D019B1626C42F00202626413F0D5
:103D7000020F04D019B1626C42F00402626413F0C5
:103D8000080F07D010F0200F00D119B1626C42F07B
:103D900008026264626C002AD5D013F0200F02D0B2
:103DA00010F0200F29D123685B6903F04003626C97
:103DB00012F0080F00D163B32046FFF7F7FD236828
:103DC0005B6913F0400F20D0226802F1140353E81E
:103DD000003F23F04003143242E800310029F3D1C0
:103DE000E36B73B1694A1A65E06BFDF7F7F90028D8
:103DF000A9D0E06B036D9847A5E72046FFF704FFC5
:103E0000D1E72046FFF7F7FE9DE72046FFF7F3FED8
:103E100099E72046FFF7EFFE0023636493E713F072
:103E2000100F82D010F0100F3FF47FAF00230193EA
:103E30001368019353680193019B536913F0400F7A
:103E40005FD0E26B13685B689BB2002B4AD0A18DF8
:103E5000994247D9E385D369B3F5807F37D022688B
:103E600002F10C0353E8003F23F480730C3242E864
:103E700000310029F3D1226802F1140353E8003F16
:103E800023F00103143242E800310029F3D1226803
:103E900002F1140353E8003F23F04003143242E8D8
:103EA00000310029F3D1202384F84230002323631A
:103EB000226802F10C0353E8003F23F010030C3298
:103EC00042E800310029F3D1E06BFDF73DF9022310
:103ED0006363A18DE38D9BB2C91A89B22046FFF7B7
:103EE00092FE30E7A18D99427FF42DAFD369B3F5EF
:103EF000807F7FF428AF022363632046FFF783FEB1
:103F000021E7A18DE38D9BB2C91A89B2E38D9BB2E3
:103F1000002B3FF418AF00293FF415AF226802F1DF
:103F20000C0353E8003F23F490730C3242E8003056
:103F30000028F3D1226802F1140353E8003F23F074
:103F40000103143242E800300028F3D1202384F822
:103F5000423000232363226802F10C0353E8003F40
:103F600023F010030C3242E800300028F3D1022382
:103F700063632046FFF747FEE5E62046FFF744FD72
:103F8000E1E62046FFF729FEDDE600BFF93B000829
:103F900008B500F071F80D4A00210D48FFF7A8F8A8
:103FA0000C4A00210C48FFF7A3F80C4A00210C48EA
:103FB000FFF79EF80B4A00210B48FFF799F80B4AD0
:103FC00000210B48FFF794F808BD00BFA841000886
:103FD000F53F0008CC41000821400008F0410008EE
:103FE0004D400008144200085D40000838420008B7
:103FF0009140000838B5FFF771F80546002408E045
:1040000040210648FDF788F800240A352846FFF7C6
:1040100030F90134A4B2312CF2D8F6E700000240A6
:1040200038B5FFF75BF80546002408E08021064814
:10403000FDF772F8002464352846FFF71AF90134B9
:10404000E4B2092CF2D8F6E70000024008B54FF0C0
:10405000FF3200210120FFF7A9F8F8E700B591B081
:104060004FF0FF330022694602480068FFF764F909
:10407000F6E700BF144A002008B5002240211020B6
:10408000FFF70FF9014B186008BD00BF144A00206C
:1040900008B54FF0FF3200210120FFF787F8F8E75D
:1040A000DFF834D0FDF742F90C480D490D4A0023E2
:1040B00002E0D458C4500433C4188C42F9D30A4ADD
:1040C0000A4C002301E013600432A242FBD3FCF748
:1040D000A3F8FCF78DFB70470000022000000020D1
:1040E000100000206C42000810000020184A002038
:1040F000FEE70000F8B500BFF8BC08BC9E4670475C
:0C410000F8B500BFF8BC08BC9E46704734
:10410C000000000001020304000000000000000099
:10411C00010203040607080964656661756C745432
:10412C0061736B0049444C4500000000546D7251A2
:10413C0000000000546D722053766300436F6E7460
:10414C00726F6C5461736B004D6F6E69746F725447
:10415C0061736B004661756C745461736B00000085
:10416C004C6F6767696E675461736B00436F6D6D5D
:10417C005461736B00000000244100080000000033
:10418C000000000000000000000000000002000021
:10419C00180000000000000000000000484100086A
:1041AC000000000000000000000000000000000003
:1041BC0000040000280000000000000000000000C7
:1041CC005441000800000000000000000000000046
:1041DC0000000000000400001800000000000000B7
:1041EC00000000006041000800000000000000001A
:1041FC00000000000000000000040000300000007F
:10420C0000000000000000006C41000800000000ED
:10421C00000000000000000000000000000400008E
:10422C0008000000000000000000000078410008B9
:10423C000000000000000000000000000000000072
:10424C00000400002000000000000000000000003E
:08425C00B0C0FF7F010000006B
:04426400F901000854
:04426800D101000878
:10426C0001000000100000000024F400AAAAAAAA71
:04000005080040A10E
:00000001FF
